:020000040800F2
:1000000000000320A1030008F1030008F103000829
:10001000F1030008F1030008F103000800000000EC
:10002000000000000000000000000000F1030008D4
:10003000F103000800000000F1030008F1030008CC
:10004000F1030008F1030008F1030008F1030008C0
:10005000F1030008F1030008F1030008F1030008B0
:10006000F1030008F1030008F1030008F1030008A0
:10007000F1030008F1030008F1030008F103000890
:10008000F1030008F1030008F1030008F103000880
:10009000F1030008F1030008F1030008F103000870
:1000A000F1030008F1030008F1030008F103000860
:1000B000F1030008F1030008F1030008F103000850
:1000C000F1030008F1030008F1030008F103000840
:1000D000F1030008F1030008F1030008F103000830
:1000E000F1030008F1030008F1030008F103000820
:1000F000F1030008F1030008F1030008F103000810
:10010000F1030008F1030008F1030008F1030008FF
:10011000F1030008F1030008F1030008F1030008EF
:10012000F1030008F1030008F1030008F1030008DF
:10013000F1030008F1030008F1030008F1030008CF
:10014000F1030008F1030008F1030008F1030008BF
:10015000F1030008F1030008F1030008F1030008AF
:10016000F1030008F1030008F1030008F10300089F
:10017000F1030008F1030008F1030008000000008B
:10018000F1030008F1030008F1030008F10300087F
:10019000F1030008F1030008F1030008F10300086F
:0C01A000F1030008F1030008F10300085F
:1001AC000348044B834202D0034B03B118477047FA
:1001BC000000002000000020000000000548064B55
:1001CC001B1AD90F01EBA301491002D0034B03B149
:1001DC0018477047000000200000002000000000BD
:1001EC0010B5064C237843B9FFF7DAFF044B13B173
:1001FC000448AFF300800123237010BD00000020E1
:10020C00000000003C04000808B5054B1BB1054973
:10021C000548AFF30080BDE80840FFF7CFBF00BF33
:10022C0000000000040000203C040008034AD2F83F
:10023C00883043F47003C2F88830704700ED00E05A
:10024C0008B500F02BF8134A136B43F00603136345
:10025C00114B1A6842F480421A609A6842F4804248
:10026C009A609A6942F400029A6103F580631A68F5
:10027C0042F400221A609A6842F440229A605A6A48
:10028C0022F0F0025A62044A936943F080039361AE
:10029C00F9E700BF00380240000402403B4A1368F3
:1002AC0023F0F80343F08003136000239360374B73
:1002BC009B6813F00C0FFAD1344A136823F0807347
:1002CC001360324B1B6813F0007FFAD12F4A13686E
:1002DC0023F4102313602D4B1B6813F4003FFAD149
:1002EC002A4B1A6822F480221A601A6842F480326F
:1002FC001A60264B1B6813F4003FFAD0234B1A6884
:10030C0042F400221A601A6842F480221A601A68B9
:10031C0022F001021A6000225A605A6842F48002EC
:10032C005A605A6842F004025A605A6842F4B44265
:10033C005A605A6842F480325A605A6842F07062CD
:10034C005A609A6842F002029A609A689A609A68B7
:10035C0042F4A0529A609A6842F400429A609A68F9
:10036C0022F040429A609A6842F040529A600849E2
:10037C000A6842F005020A601A6842F080721A603C
:10038C00024B1B6813F0007FFAD070470038024014
:10039C00003C0240DFF834D00D480E490E4A0023D1
:1003AC0002E0D458C4500433C4188C42F9D30B4A1D
:1003BC000B4C002301E013600432A242FBD3FFF785
:1003CC0035FF00F011F8FFF73BFF704700000320EA
:1003DC0000000020000000205C0400080000002049
:1003EC001C000020FEE7000070B50D4D0D4C641B89
:1003FC00A4100026A64209D10B4D0C4C00F018F8A5
:10040C00641BA4100026A64205D170BD55F8043B10
:10041C0098470136EEE755F8043B98470136F2E76A
:10042C00540400085404000854040008580400083C
:10043C00F8B500BFF8BC08BC9E467047F8B500BFC5
:08044C00F8BC08BC9E46704795
:040454001502000885
:04045800ED010008AA
:04000005080003A14B
:00000001FF
